:100000000C9434000C9451000C9451000C94510049
:100010000C9451000C9451000C9451000C9451001C
:100020000C9451000C9451000C9451000C9451000C
:100030000C9451000C9451000C9451000C945100FC
:100040000C9451000C9451000C9400010C94550038
:100050000C9451000C9451000C9451000C945100DC
:100060000C9451000C94510011241FBECFEFD8E026
:10007000DEBFCDBF11E0A0E0B1E0E0EFF4E002C0F0
:1000800005900D92AE37B107D9F721E0AEE7B1E0A8
:1000900001C01D92AF37B207E1F70E9457020C94DE
:1000A00076020C9400002D9A08951F920F920FB6BD
:1000B0000F9211248F9381E0809300018F910F9014
:1000C0000FBE0F901F901895809101010895909197
:1000D0000001911101C0FFCF8093C6001092000172
:1000E0000895CF92DF92EF92FF920F931F93CF93D9
:1000F000DF93D0900101DD20B1F0C42E7C0110E02F
:1001000000E0C62FD0E0D02E0C171D0724F48091FC
:100110000101811112C0CC2031F08DE70E946700EF
:100120008EE70E9467008D2DDF91CF911F910F9177
:10013000FF90EF90DF90CF900895F70181917F01BC
:100140000E9467000F5F1F4FDECFCF93DF93CDB7C5
:10015000DEB7CA54D1090FB6F894DEBF0FBECDBFCB
:100160008AE4ECE0F1E0DE01119601900D928A95AF
:10017000E1F741E06FE0CE0101960E947100C65B9D
:10018000DF4F0FB6F894DEBF0FBECDBFDF91CF912A
:100190000895CF93DF93CDB7DEB7CA54D1090FB618
:1001A000F894DEBF0FBECDBF8AE4ECE0F1E0DE01E3
:1001B000119601900D928A95E1F741E06AE0CE0137
:1001C00001960E947100C65BDF4F0FB6F894DEBF48
:1001D0000FBECDBFDF91CF9108958DE70E946700DC
:1001E00083E10E9467001092010108958DE70E944B
:1001F000670081E10E94670081E08093010108951A
:100200001F920F920FB60F9211242F933F934F938B
:100210005F936F937F938F939F93AF93BF93EF936E
:10022000FF9381E080937E018091C600813111F4BB
:100230000E94F6008091C600833111F40E94ED0007
:10024000FF91EF91BF91AF919F918F917F916F91AE
:100250005F914F913F912F910F900FBE0F901F9084
:10026000189580917E01811101C0FFCF8091C60059
:1002700010927E010895CF92DF92EF92FF920F933A
:100280001F93CF93DF93D62F6F3F09F4DEEFC0911A
:100290000101C1110AC08C2FDF91CF911F910F91E5
:1002A000FF90EF90DF90CF9008957C0110E000E088
:1002B000C0E0CD2ED12C0C151D056CF70E9431012C
:1002C0008E3749F3F70181937F01C02F0F5F1F4FD6
:1002D0000C151D0581F7C1E0CD0FDDCF813011F484
:1002E0000C9453002D980895CF93DF93CCE2D1E086
:1002F0000E9431018E3751F02197D1F70E94ED0015
:100300008FE19EE40197F1F700C0000080917E012B
:10031000811116C085E090E030E223B1232723B994
:100320002FEF43ED50E3215040405040E1F700C033
:100330000000019791F780E0DF91CF910C946E015E
:100340000E9453008FEF93E224EF815090402040B1
:10035000E1F700C00000EFCF0F931F93CF93DF931F
:10036000CDB7DEB72A970FB6F894DEBF0FBECDBF6C
:100370008AE0E2E0F1E0DE01119601900D928A95AB
:10038000E1F780E00E946E0140E06AE0CE01019654
:100390000E947100182F0AE01A3058F02A960FB602
:1003A000F894DEBF0FBECDBFDF91CF911F910F91AB
:1003B00008950E94530080910101811101C0FFCF77
:1003C00080E00E946E01602F611B40E081E090E0C0
:1003D0008C0F9D1F810F911D0E947100182FDCCF83
:1003E000FB01DC0150E09D01281B390B2417350768
:1003F00014F00C9453003D9121913217A1F380E049
:100400000C946E01CF93DF93CDB7DEB7CB58D109F3
:100410000FB6F894DEBF0FBECDBF87E2E6E5F1E090
:10042000DE01AB59BF4F01900D928A95E1F767E26B
:10043000CE0101960E943B0147E2BE016B597F4FFE
:10044000CE0101960E94F001C557DF4F0FB6F89418
:10045000DEBF0FBECDBFDF91CF910895CF93DF9365
:10046000CDB7DEB7E1970FB6F894DEBF0FBECDBFB4
:1004700087E2E6E5F1E0DE01119601900D928A95A2
:10048000E1F76AE0CE0188960E943B014AE0BE0196
:100490006F5F7F4FCE0188960E94F001E1960FB604
:1004A000F894DEBF0FBECDBFDF91CF91089580E2FB
:1004B00084B92D981092C0008091C100886180930A
:1004C000C1008091C100806A8093C10086E0809362
:1004D000C2001092C50087E68093C40078940E9401
:1004E000A5000E94C9000E94A500FDCFF894FFCF8F
:1004F00001010001110213047E057D06556E697627
:100500006572736964616465204665646572616CD7
:10051000206465205065726E616D6275636F0A4478
:100520006570617274616D656E746F2064652045DD
:100530006C657472C3B46E6963612065205369731E
:1005400074656D617300446573656E766F6C766972
:100550006D656E746F2064652073697374656D6179
:0E0560007320656D6261726361646F730000E9
:00000001FF
